:020000040800F2
:100000000007002091010008B9100008B510000891
:10001000B71000089F0400089312000800000000B9
:10002000000000000000000000000000BD100008FB
:10003000A104000800000000BB100008BF10000869
:10004000AB010008AB010008AB010008AB010008E0
:10005000AB010008AB010008AB010008AB010008D0
:10006000AB010008AB010008AB010008AB010008C0
:10007000AB010008AB010008AB010008AB010008B0
:10008000AB010008AB010008AB010008AB010008A0
:10009000AB010008AB010008AB010008AB01000890
:1000A000AB010008AB010008AB010008AB01000880
:1000B000AB010008AB010008AB010008AB01000870
:1000C000AB010008AB010008AB010008AB01000860
:1000D000AB010008AB010008AB010008AB01000850
:1000E000AB010008AB010008AB01000800F002F80A
:1000F00000F03FF80AA090E8000C82448344AAF183
:100100000107DA4501D100F034F8AFF2090EBAE880
:100110000F0013F0010F18BFFB1A43F0010318473B
:100120009C130000BC130000103A24BF78C878C1AB
:10013000FAD8520724BF30C830C144BF04680C60ED
:10014000704700000023002400250026103A28BF35
:1001500078C1FBD8520728BF30C148BF0B60704739
:10016000782900F08980002070471FB51FBD10B5A9
:1001700010BD00F05BF91146FFF7F7FF01F0F8F84A
:1001800000F079F903B4FFF7F2FF03BC00F080F947
:100190000948804709480047FEE7FEE7FEE7FEE71B
:1001A000FEE7FEE7FEE7FEE7FEE7FEE70448054957
:1001B000054A064B7047000017110008ED000008C3
:1001C00000010020000700200003002000030020A1
:1001D000B2F120030AD5C2F1200320FA02F001FA9D
:1001E00003F321FA02F140EA0300704721FA03F019
:1001F0004FF00001704700000FB4044910B503AA86
:10020000029800F0E9F810BC5DF814FB1000002023
:100210002DE9F0410E460446002020622046E168A8
:10022000884730B3252805D0D4E901219047206ABA
:10023000401CF2E7E168204600278847050018D0F7
:10024000A5F14100192802D820354FF40067324645
:10025000294620462760FFF783FF40B1012804D0DC
:10026000F61D26F007060836D8E7361DD6E72846DD
:10027000DAE7206ABDE8F08170B504460D462146F4
:100280001068AFF300802188090502D50F4A7A442F
:1002900002E00E4A7A440E32002104F1240305E004
:1002A00000F00F060009965D5E54491C0028F7D146
:1002B00020780023000704D5702D02D009B1022355
:1002C00011322046BDE8704000F02CB8001200004A
:1002D0004FF0000200B5134694469646203922BFDF
:1002E000A0E80C50A0E80C50B1F12001BFF4F7AF2A
:1002F000090728BFA0E80C5048BF0CC05DF804EB0C
:10030000890028BF40F8042B08BF704748BF20F879
:10031000022B11F0804F18BF00F8012B7047704777
:10032000704770472DE9F0470D46994692460446BE
:1003300000F124080168880604D5E06921F0100165
:10034000216000E00120A84201DD471B00E00027FA
:10035000A1697A1902EB0900081AA0612078C00689
:1003600002D42046AFF30080002608E0D4E9012142
:100370001AF806009047206A401C761C20624E4501
:10038000F4DB2078C0060AD52046AFF3008006E0F3
:10039000D4E9012130209047206A401C2062381E99
:1003A000A7F10107F4DC07E0D4E9012118F8050002
:1003B0009047206A401C2062281EA5F10105F3DC4D
:1003C0002046AFF300802078000602D50220BDE869
:1003D000F0870120FBE70000074B70B50D467B441A
:1003E00000F011F80446284600F064FF10B14FF009
:1003F000FF3070BD204670BD770F000001694A1CB8
:1004000002610878704700B58FB0CDE90131002155
:10041000059105497944CDE9031011466846FFF777
:10042000F7FE0FB000BD0000E5FFFFFF754600F0CE
:100430002BF8AE4605006946534620F00700854676
:1004400018B020B5FFF7B2FEBDE820404FF000061F
:100450004FF000074FF000084FF0000B21F00701AC
:10046000AC46ACE8C009ACE8C009ACE8C009ACE8EF
:10047000C0098D46704710B50446AFF30080204692
:10048000BDE81040FFF77EBE00487047A000002086
:1004900001491820ABBEFEE7260002007047FEE7C8
:1004A0007047000006490020C8610648016941F014
:1004B00004010161016941F04001016170470000E0
:1004C0008000002000200240064A0021D161064938
:1004D0000A6942F002020A614861086940F040007E
:1004E000086170478000002000200240044B002279
:1004F000DA61044A136943F0010313610180704714
:10050000800000200020024014480022C168CB0671
:10051000134904D5CA6942F00202CA611022C368B5
:100520005B0705D5CB6943F00103CB6142F00402C0
:10053000C369DB0707D0CB6943F00403CB61C16912
:1005400021F00101C161A2F58071013901D0C260C1
:100550007047C16921F00101C1617047002002406C
:100560008000002070B5054600F0DAF90646114C0F
:1005700009E0681C07D025B100F0D2F9801BA84221
:1005800001D9032070BDE068C007F2D1E0688006A1
:1005900001D52020E060E068C00605D4E069C0070E
:1005A00002D1E068400703D5FFF7AEFF012070BD20
:1005B000002070BD0020024070B5044600F0B0F984
:1005C0000546601C02D004480078044400F0A8F9F5
:1005D000401BA042FAD370BD140000202DE9F04763
:1005E000054626480F460126017E01290FD001212C
:1005F000814601762868DFF888804CF25034022862
:1006000008D0A2462046FFF7ADFFA8B131E0022096
:10061000BDE8F0872046FFF7A5FF08BB0120FFF7E4
:1006200041FF2046FFF79EFFD8F81010064621F044
:100630000401C8F810101CE04FF0FF303860AC68BF
:1006400011E02046FFF740FF5046FFF78BFFD8F838
:100650001010060021F00201C8F8101001D03C6013
:1006600007E004F58064D5E9020100EB8120A04297
:10067000E7D8002189F818103046C9E7800000202B
:10068000002002400348016941F08001016100201F
:1006900070470000002002402DE9F05F07461C482B
:1006A00088460024017E15461E46012909D00121F5
:1006B000814601764CF2503A5046FFF753FF18B18D
:1006C00022E00220BDE8F09F012F02D0022F00D0CF
:1006D0000427D346DFF83CA0220128463146FFF725
:1006E00077FD81B208EB4400FFF700FF5846FFF7A3
:1006F00039FFDAF8102022F00102CAF8102018B9E8
:10070000641CE4B2BC42E7D3002289F81820D9E780
:100710008000002000200240064900200A691206DD
:1007200007D5054A4A60054A4A600969090600D5A5
:10073000012070470020024023016745AB89EFCDBF
:100740002DE9F84FDFF8B8910024A9F1040B2346F6
:100750000F2709F1040AABF1040EC9E00125A540F9
:100760002A40AA427DD1674ED1F804C0ACEB0608FE
:10077000B44532D014DCBCF1030F3AD009DCBCF133
:10078000000F2AD0BCF1010F1CD0BCF1020F31D1F7
:100790001DE0BCF1110F17D0BCF1120F2AD119E0E6
:1007A000B8F5881F19D006DCB8F5803F15D0B8F52C
:1007B000801F1FD111E0B8F5001F0ED0B8F5041F3F
:1007C00018D10AE0CB6815E0CB681B1D12E0CB689E
:1007D00008330FE0CB680C330CE08B682BB1012B96
:1007E0004FF0080303D0456104E0042302E00561F3
:1007F00000E00023FF2A01D8064601E000F10406CC
:100800004FEA840501D9A5F12005D6F8008007FA42
:1008100005FC28EA0C0803FA05F548EA0508C6F8BD
:1008200000804D68ED0062D5374DAE6946F0010697
:10083000AE61AD6924F0030605F001050095334D66
:1008400006EB050CDCF80850A607360F07FA06F889
:1008500025EA0805DFF8B880404503D14FF00008CD
:1008600017E044E0DFF8AC80404502D14FF00108CA
:100870000FE0DFF8A480404502D14FF0020808E005
:10088000DFF89880404502D14FF0030801E04FF0B7
:10089000040808FA06F848EA0508CCF808804D680C
:1008A000D9F80060ED024D4601D5164300E09643AD
:1008B0002E604D68DAF80060AD02554601D516434A
:1008C00000E096432E604D68DBF80060AD035D46A6
:1008D00001D5164300E096432E604D68DEF80060B7
:1008E000ED03754601D5164300E096432E60641C67
:1008F0000D682A46E5407FF431AFBDE8F88F00006F
:1009000008040140000011100010024000000140E6
:1009100000080140000C014000100140001401409B
:100920000148806870470000140000200248816878
:10093000027811448160704714000020074810B508
:10094000016841F010010160032000F067F80F20FA
:1009500000F006F800F024F8002010BD002002404E
:1009600070B50D4D04464FF47A712878B1FBF0F064
:100970000A490968B1FBF0F000F0CEFA48B9102C32
:1009800007D200222146501E00F028F800206C609B
:1009900070BD012070BD0000140000202000002068
:1009A0000C4808B5816941F001018161816901F05C
:1009B00001010091C16941F08051C161C06900F03D
:1009C000805000900448416821F0E06141F00071DE
:1009D000416008BD0010024000000140F0B40E4B21
:1009E0001B680C46C3F30223C3F10705042D00D98D
:1009F0000425191D072901D2002300E0DB1E012672
:100A000006FA05F1491E214099409E40761E164087
:100A10003143F0BC00F03EBC0CED00E0064900F0B4
:100A2000070208684FF6FF03184040EA0220034A15
:100A300010430860704700000CED00E00000FA056C
:100A40002DE9F0470F46050061D0434E306800F0B5
:100A50000700B84209D2306820F007003843306000
:100A6000306800F00700B84251D128683B4C81073C
:100A700012D5400703D5606840F4E06060602878D4
:100A8000000703D5606840F4605060606068A96842
:100A900020F0F000084360602878C00728D068681C
:100AA000012810D02168022810D0890700292EDAE9
:100AB000616821F0030101436160FFF731FF804667
:100AC00041F288390DE021688903EFE78901EDE7FC
:100AD000FFF726FFA0EB0801494502D90320BDE836
:100AE000F0876068696800F00C00B0EB810FEFD10F
:100AF000306800F00700B8420BD9306820F00700DA
:100B000038433060306800F00700B84201D001205F
:100B1000E5E72878400705D56068E96820F4E060DB
:100B2000084360602878000706D56068296920F4CA
:100B3000605040EAC100606000F038F86168084A1F
:100B4000C1F30311515CC8400649086006480068BB
:100B5000FFF706FF0020C2E700200240001002401D
:100B60007A140008200000201800002004480549DD
:100B700000684968044AC1F30221515CC8407047CB
:100B800020000020001002408A1400080448054993
:100B900000684968044AC1F3C221515CC8407047EB
:100BA00020000020001002408A1400080E4A5168FC
:100BB0000E4801F00C03042B11D0082B0FD10C4868
:100BC000C1F38343C903C05C0AD55168084AC1F325
:100BD0004041921E515C054A5043B0FBF1F0704712
:100BE00004494843704700000010024000127A0098
:100BF0006A14000800093D002DE9F84F040070D088
:100C00002078C04DC00749D06868C0F38100012832
:100C100007D06868C0F38100022809D16868C00362
:100C200006D52868800339D560680028E7D035E00C
:100C30006068B0F5803F0BD010B1B0F5A02F11D097
:100C4000286820F480302860286820F4802002E0A2
:100C5000286840F480302860606890B1FFF760FE3B
:100C600006460AE0286840F480202860F0E700BFCC
:100C7000FFF756FE801B642873D828688003F7D5D9
:100C80000CE0FFF74DFE064605E000BFFFF748FE0B
:100C9000801B6428F0D828688003F7D420789A4E07
:100CA00080074FF001094FF0000839D5686810F04F
:100CB0000C0F07D06868C0F38100022809D168686A
:100CC000C00306D42868800714D52069012808D1FC
:100CD00010E02069B0B1C6F80090FFF721FE07468A
:100CE00005E00AE1FFF71CFEC01B0228C4D82868F3
:100CF0008007F7D52868616920F0F80040EAC10054
:100D000028600DE0C6F80080FFF70AFE074604E001
:100D1000FFF706FEC01B022823D828688007F7D4F7
:100D2000207800072CD57948A169D9B1C0F8009086
:100D3000FFF7F6FD074604E0FFF7F2FDC01B0228AF
:100D40000FD8686A8007F7D571484FF4FA510068E8
:100D5000B0FBF1F0009000BF0098411E0091FAD264
:100D60000EE080E0C0F80080FFF7DAFD074604E0FF
:100D7000FFF7D6FDC01B022875D8686A8007F7D434
:100D80002078400760D5E8690027C00008D4E869EA
:100D900040F08050E861E869012700F08050009041
:100DA0005C480168C90513D40168834641F4807129
:100DB0000160FFF7B5FD824606E000BFFFF7B0FD1A
:100DC000A0EB0A0064284ED8DBF80000C005F5D57A
:100DD000E06801280AD008B1052813D0286A20F05D
:100DE00001002862286A20F0040002E0286A40F02E
:100DF00001002862E06841F2883B98B1FFF790FD5E
:100E000082460BE0286A40F004002862EEE700BF4B
:100E1000FFF786FDA0EB0A0159455AD8286A8007DA
:100E2000F6D50CE0FFF77CFD824605E0FFF778FD84
:100E3000A0EB0A0159454CD8286A8007F6D41FB1A7
:100E4000E86920F08050E861E06988B36968C1F31F
:100E50008101022944D00228C6F8608004D0FFF73F
:100E60005FFD044638E034E0FFF75AFD074604E032
:100E7000FFF756FDC01B02282BD828688001F7D445
:100E8000206AB0F5803F05D16868A16820F4003081
:100E900008436860D4E908010843696821F47411C3
:100EA00008436860C6F86090FFF73AFD044606E024
:100EB00025E000BFFFF734FD001B022809D8286891
:100EC0008001F7D51BE000BFFFF72AFD001B0228B9
:100ED00002D90320BDE8F88F28688001F4D40EE021
:100EE0000128F7D06868226A00F48031914204D169
:100EF000616A00F47010884201D00120EAE7002006
:100F0000E8E7000000100240000042428004424234
:100F1000200000200070004010B5401EB0F1807F1E
:100F200001D3012010BD4FF0E02460610F21601754
:100F300000F0B0F90020A06107202061002010BD62
:100F400070B5040004D094F84100002510B106E00B
:100F5000012070BD84F84050204600F023F8242082
:100F600084F841002068C16821F40051C160204626
:100F700000F0FAF82068016921F4904101612068CD
:100F8000416921F02A0141612068C16841F40051A2
:100F9000C1606564202084F8410084F842006563E4
:100FA000002070BD30B585B00024009401940294F7
:100FB000039400681449884223D11448C16941F45C
:100FC0000031C161C16901F400310491816941F0CE
:100FD0000401816180690E4D00F00400049004203A
:100FE0000090022001900320039069462846FFF7F5
:100FF000A7FB0820CDE90004694628460294FFF7C4
:101000009FFB05B030BD00000044004000100240CE
:10101000000801402DE9F843044690F84100984645
:1010200016460D46202802D00220BDE8F88385B17F
:101030007EB100206064212084F84100FFF770FC3D
:10104000A6848146E684A0682027B0F5805F02D0A0
:1010500003E00120E9E7206910B12E4600250EE0EB
:1010600000260CE08021204600F0DAF8A8B9C6B1CD
:1010700016F8010B21684860E08C401EE084E08C8B
:101080004B464FF00002CDF800800028EAD14FF027
:101090004001204600F0C4F840B184F841700320BC
:1010A000C3E735F8020BC0F30800E3E784F84170AA
:1010B0000020BAE7FEE7FEE7FEE770477047FFF75C
:1010C00035BC30B58FB028216846FFF701F91421EF
:1010D0000AA8FFF7FDF801200225049000951020D2
:1010E00005900024CDE9075468460994FFF784FD74
:1010F00008B172B6FEE70F200A90CDE90B540D94AB
:1011000000210AA80E94FFF79BFC002801D072B6BC
:10111000FEE70FB030BD704701680C3151E8002F79
:1011200022F4907241E80023002BF5D101681431BC
:1011300051E8002F22F0010241E80023002BF5D1F5
:10114000016B012909D101680C3151E8002F22F00F
:10115000100241E80023002BF5D1202180F8421035
:10116000002101637047000070B504460068016902
:10117000E26821F44051114301612169A0680843EC
:10118000616908432168CA6841F20C639A430243CB
:10119000CA6020684169A26921F44071114341612C
:1011A0001E492068884202D1FFF7F0FC01E0FFF7FA
:1011B000DDFC00EBC00101EB0012606864218000DF
:1011C000B2FBF0F3B3FBF1F36FF018067343B2FB1D
:1011D000F0F5B2FBF0F605EB8305322303EB0515C2
:1011E000B5FBF1F5B6FBF1F605F0F00505EB0615DC
:1011F000B2FBF0F6B2FBF0F0B0FBF1F06FF01802CA
:10120000504306EB800003EB0010B0FBF1F02168C7
:1012100000F00F002844886070BD000000380140D5
:101220002DE9F843984617460D460446089E24E0EB
:10123000701C22D0FFF774FBA0EB0800B0421AD854
:10124000CEB12068C168490717D5802D15D0402D33
:1012500013D00168C94309070FD40168002540680D
:1012600000902046FFF758FF0820606484F8405043
:101270000120BDE8F8830320FBE72068006835EA19
:10128000000004D00020B842D2D00020F1E70120B5
:10129000F9E7FEE70907090E002804DB00F1E0206A
:1012A00080F80014704700F00F0000F1E02080F893
:1012B000141D70470020704710B50844029C1CB1F3
:1012C000012C0AD100210DE0002104E030F8024B8E
:1012D00022F81140491C9942F8DB10BD10C842F8B1
:1012E0002140491C9942F9DB10BD2DE9F04186B03F
:1012F0001E461746884604460C9DFFF70DFA00204F
:1013000000900120CDE9024004A96846FFF766F984
:1013100044445DB1012D0CD018E037F815200023AE
:1013200021460120FFF7B8F9A41C6D1CB542F4DB7F
:101330000CE0002508E057F8252000232146022074
:10134000FFF7AAF9241D6D1CB542F4DBFFF79AF9EB
:1013500006B0BDE8F081000013B54FF6FF7301221F
:1013600069460248FFF756FE00981CBD2400002085
:1013700008B5FFF7E3FAFFF7A4FE2648816941F0BC
:1013800020018161816901F020010091816941F0B2
:10139000040181618069204900F0040000901F4829
:1013A0000C2201604FF4E131416000218160C16095
:1013B000C0E904128161C161FFF7C2FD08B172B6D4
:1013C000FEE7174D01240423164A00212846009405
:1013D000FFF78BFF114A042348320021284600946E
:1013E000FFF76AFF0D4C4FF47A7548340EA0216860
:1013F000FEF702FF10A06168FEF7FEFE12A0A168D2
:10140000FEF7FAFE14A0E168FEF7F6FE2846FFF7A5
:10141000D3F8EBE700100240004400402400002015
:10142000007C0008000000206461746131203D20D0
:1014300025780D0A000000006461746132203D20AF
:1014400025780D0A000000006461746133203D209E
:1014500025780D0A000000006461746134203D208D
:1014600025780D0A000000000102020304050607AA
:1014700008090A0B0C0D0E0F1010000000000000F0
:101480000000010203040607080900000000010231
:10149000030430313233343536373839414243442E
:1014A00045464030580030313233343536373839DC
:1014B000616263646566403078000000DC140008F7
:1014C000000000202400000028010008001500088A
:1014D00024000020DC060000440100087856341285
:1014E0000202020221436587040404040000000094
:1014F00001000000100000000000000000127A004F
:04000005080000ED02
:00000001FF
